:020000040800F2
:1000000088060020D900000889370008B12F0008B1
:1000100000000000000000000000000000000000E0
:10002000000000000000000000000000B9370008D8
:1000300000000000000000008B370008BB370008FC
:10004000EB00000800000000EB000008EB000008D7
:10005000EB000008EB000008EB000008E1110008CD
:10006000000000002111000831110008EB00000819
:10007000490D0008EB000008EB000008000000003C
:10008000EB0000080000000000000000EB0000088A
:1000900000000000EB000008EB000008EB00000887
:1000A000EB000008EB000008EB0000084D3E0008E4
:1000B000EB0000080000000000000000000000004D
:1000C0000448854600F066FC00480047314A0008B5
:1000D000C046C046880600200448804704480047C0
:1000E000FEE7FEE7FEE7FEE7FEE7FEE71D38000855
:1000F000C100000830B50B46014600202022012433
:1001000009E00D46D5409D4205D31D469540491B4B
:100110002546954040191546521E002DF1DC30BD94
:10012000D2B201E00270401C491EFBD2704700228F
:10013000F6E710B513460A4604461946FFF7F0FFE6
:10014000204610BD421C0178401C0029FBD1801ABA
:10015000704700000FB400B58DB009900B9010A946
:1001600000200091C0430A9000200C9006480690A1
:10017000064807906A4609A80F9900F08DFA0DB05D
:1001800008BC04B018470000B9060008D9060008EA
:10019000FFB50027FF4383B000205C6801909E6894
:1001A0001D46A9697F1C049888470090296A8847E2
:1001B0000028F6D10098401C0CD003204002844354
:1001C000002E19DD600614D500982B2809D02D28A3
:1001D0000FD103E00020C04307B0F0BD0120800232
:1001E0000443A9697F1C04988847761E0090002E5E
:1001F00002DD0098302803D00598002825D035E08E
:10020000012040020443A969761E7F1C0498884798
:100210000090002E03DD782805D0582803D00598DB
:10022000002810D022E00598002801D010281DD108
:10023000012040028443A969761E7F1C04988847E8
:100240000090102002E0082000E00A2005900DE058
:10025000012149020C43059A0199761E5143081861
:100260000190A9697F1C049888470090002E05DD45
:100270000599009800F0FBF90028E9DAE96904988B
:100280008847A00502D40120C043A5E7E00722D19A
:10029000600611D56005019800D5404229680A1D05
:1002A0002A600968220501D5087014E0220701D5EB
:1002B000088010E008600EE02868011D29600068D1
:1002C000210502D50199017005E02107019901D5A9
:1002D000018000E0016038467EE70000F0B5074687
:1002E0000846584087B0C00F049048000E46590099
:1002F00040084908BC1A884105D2384631461E4696
:1003000017460B4602465800400810434DD0300DAA
:10031000039040055900400D490D0590401A029088
:10032000402873DA18030121000B090508430190E6
:1003300004980092002806D01146019A49420020F4
:10034000904100910190029840210A1A0199009869
:1003500000F06AF905460C466B4607CB00F074F9CD
:10036000C0197141039A0E0D0023D71756401A4643
:100370007A40164344D0049A002A2DD0029A012ACA
:10038000039A15DC1205C01A914101263605001C9E
:100390007141D20F059ED2070093019202962A4620
:1003A000234600F0F9F907B0F0BD38463146FAE7C8
:1003B0001605234A0F46B218C01AB7410121090594
:1003C000001C4F4100187F41114618187941E20F77
:1003D00010436D19644113E0E2076D08154364088A
:1003E000C2071443039A01261205C01A914136052B
:1003F000001C7141CE07400830434908C0185141E4
:100400002A46234600F0BBF9CDE7FFE70498012216
:100410004000C117121A00238B4104983146C417BB
:10042000381AA141EEE730B40124E407634030BC40
:1004300054E730B40124E407614030BC4EE70000CB
:100440000000E0FFF0B51FB488B00B9909980024B4
:1004500048400999C00F490049080991C0070B9904
:100460000090490049080B9109990898A64608434D
:100470001CD00B990A98084318D009980124400011
:10048000420D4800410D099824050003000B20434C
:1004900009900B980003000B20430B9050181C4947
:1004A0004018002201901446104605E00020014645
:1004B0000DB0F0BD032801DA034600E003239C469B
:1004C000C11A0AAE0AE05F0008ADED5B4F00F75BB2
:1004D0007D430027AA187C41491C5B1E6145F2DD63
:1004E000410004AB5A522104120C0A43240C401C54
:1004F0000828DFDB01980290009970460191009076
:10050000059B049A0799069800F046F9D0E7000089
:100510000DFCFFFF10B500229623114600F0F6F8FF
:1005200010BD00000EB505490291002100910A4658
:100530000B46019100F030F903B000BD3304000018
:10054000C20FD207400040080BD0C10D0723DB01CA
:10055000C91840020905400A1143C2084007114367
:100560007047002001467047CB0FDB07490010B5EC
:10057000490802460A4307D00A0D07240903E4018B
:10058000090B121B002A01DC002010BDC900440F1A
:100590000C43C100E018D205801800F0AFF810BD80
:1005A0000122D207002800DB101A002900DB511AB3
:1005B000814270470122D207002800DB101A00296F
:1005C00000DB511A88427047F0B51FB40646002080
:1005D00082B005464024019100901BE0019922461B
:1005E0000F46304600F0E8F9049A059B801A9941BD
:1005F00010D310461946224600F016F8361A8F41DD
:100600000197224601200021009F00F00DF83818C4
:100610004D4100902046641E0028DFDC019B0098BD
:100620002946324607B0F0BD10B5202A04DB01464A
:10063000203A9140002010BD914020239C1A03468F
:10064000E3401943904010BD10B5202A06DBCB17BC
:100650000846203A1041C1170B4306E00B461341F0
:10066000D0402024A21A91400843194610BD3A28D0
:1006700000D23038202302469A43412A01D3104643
:100680003738884201D30020C0437047026813788E
:10069000511801601846704710B5D1600449516186
:1006A0000449116200211161114600F09DF910BD4D
:1006B0008D060008DB0900084268002A08D001689E
:1006C0000B78491C002B03D0521E06C018467047F9
:1006D0000121C160881E70474268002A0BD0C368A0
:1006E0000168002B07D183688B4204D0491E521C3D
:1006F00006C0002070470020C0437047002904DA7C
:10070000401C490001D140084000704770B40024EB
:10071000050C05D11024000402D1002921D0112498
:10072000050E01D100020834050F01D10001241D7E
:10073000850F01D18000A41C002801DB4000641C4F
:10074000002908D020252E1B0D46F540A14000D0E1
:1007500001212943084301061B1B000ADB1D02D5AA
:10076000002070BC7047DB05181880180029F8DAE3
:10077000401C4900F5D170BC40084000704710B5DE
:10078000002B08DA0024401C614192185B411A4397
:1007900001D14008400010BDF0B51FB482B005463D
:1007A0000C0003D0084603F04FFC02E003F04CFCC1
:1007B00020300246009021462846FFF735FF049B73
:1007C000059A04460F4618431143084314D01846AF
:1007D00010431BD0009840210A1A1846059900F0D2
:1007E000EBF805460E46009A05990498FFF71CFFA2
:1007F000084305D0012004E02046394607B0F0BD8B
:100800000020C11705430E432C43374300990E982F
:100810006305401A7905E40A00220C43FD0A0A30F8
:1008200002D500200146E9E70105101969410C9C39
:100830000D9D00196941FFF7A2FFDFE7F0B50C46F7
:100840005C4085B0E40FE40703944C000026640884
:1008500059009446490802460296224321D0624636
:100860000A431ED06200570D4A000E032303550DA4
:10087000012402462C492405781B1B0B360B40181B
:1008800023432643614600901C46501AB44103D3CB
:100890000098401C009002E0921800985B410028EC
:1008A00003DA0020014605B0F0BD00200121090552
:1008B0000746864611E064461D46141BB54106D323
:1008C0006546521BB341744607430C43A646CD0709
:1008D00040084908284392185B4105460D43EAD178
:1008E0001046184313D060461946504071400843E3
:1008F00006D06046101AB34106D20122002306E05A
:1009000000220123DB0702E00122D24353100098AA
:1009100074460105381C6141029C039D0019694120
:10092000FFF72DFFBFE70000FD0300004A000903A9
:100930000123090B1B0519430A4B10B5520D9A42AE
:1009400002DA0020014610BD064B34339A4203DC24
:100950009A1A00F031F810BD034BD218FFF764FE6D
:1009600010BD0000FF030000CDFBFFFF10B5002904
:1009700004DB0124E40740428C412146002B04DBC8
:100980001C460123DB075242A341994200D1904209
:1009900010BD0000064C0125064E05E0E36807CCBB
:1009A0002B430C3C98471034B442F7D3FFF78CFB31
:1009B000686300088863000810B5202A04DB084635
:1009C000203AD040002110BD0B46D340D040202417
:1009D000A21A91400843194610BD10B50F21C0B2AC
:1009E000490200F09FF910BDF3B58DB000200A90C8
:1009F00001200B90002608460C300C4609906269D5
:100A0000012109989047051E2ED0252D2DD0216A51
:100A10008847002818D06269012109989047216A07
:100A200088470028F7D1411E62690998904700E085
:100A3000761CA1690D988847216A88470028F7D15C
:100A4000E1690D988847DAE7A1690D98884707465C
:100A5000A84201D1761CD2E7E1690D9888477F1C36
:100A600002D10A98002877D04AE1002762693D4602
:100A70003946099890472A280CD1626901210998C2
:100A80009047012506E00A214F433F18303FEBD441
:100A900010200543626901210998904701463039C9
:100AA0000A2903D29C498F42DEDCECE7E90600D438
:100AB0009A4F6C280AD04C2810D0682824D06A2875
:100AC0002ED074280CD07A280AD00DE0626901215A
:100AD000099890476C2823D004211CE0202005436E
:100AE0006269012109989047A760656065284FD029
:100AF00026DC582839D01ADC452849D012DC2528B4
:100B000034D04128B0D143E062690121099890476F
:100B1000682802D008210D43E6E70120C002DEE785
:100B20000220DCE7462833D047282CD130E05B2870
:100B300070D061282CD063286CD0642823D161E068
:100B40006F284FD009DC662822D0672820D069287A
:100B500026D06E2817D12EE0CEE070284DD0732815
:100B60006FD075284ED078280DD154E0A1690D982A
:100B700088470546252800D16CE7E1690D9888472C
:100B80006D1C00D16DE7BBE00A224CE00A2252E066
:100B9000012023466A46C0430D99C046C046A4E0E2
:100BA0002846402108436060A807234601D500225B
:100BB00039E000223FE0E80700D020E72068011D6F
:100BC00021600068290501D5067018E7290701D5BD
:100BD000068014E7A90703D5F117066041600EE708
:100BE00006600CE72846402108436060A8072346BA
:100BF00001D5082217E008221DE04949284608408F
:100C0000606016E02846402108436060A80723463C
:100C1000BCD5B9E715E02846402108436060A80725
:100C200007D5234610220120C0430D99C046C04677
:100C30005BE0234610220120C0430D99FFF7A8FA7C
:100C400053E000210C910B460091632802D05B28F1
:100C500008D044E02079C00601D40120A060012022
:100C600000903CE062690121099890475E2805D117
:100C700001200C900146626909989047216900297A
:100C800006D10B4601AA8F00491CD3510829FADB73
:100C9000002835D0216900290ED1C117C90E0918C5
:100CA0004A11930001AA9A1849094901411A0120E1
:100CB00013688840034313606269012109989047D3
:100CC0005D28E5D10C98002808D0002001AB8100F8
:100CD0005A58401CD2435A500828F8DB01AB012077
:100CE0002246C0430D99C046C04600280ADA401C7F
:100CF00006D10B98002803D00020C0430FB0F0BDF0
:100D00000A98FBE7E90702D10A99491C0A913618AB
:100D100000200B9073E60000CCCCCC0CFFFFFF7FD3
:100D2000F1F7FFFF7F2801D9002207E0054B4208B9
:100D30009A5CC00700D112091207120F01209040DF
:100D4000084070472863000810B5024800F01AFCFC
:100D500010BD0000D400002070B50446006802F009
:100D600041F9002824D0206881688907C90F04D17F
:100D70008168104A11401031816001F079F905460F
:100D800012E001F075F9401B02280DD92068806837
:100D9000400709D5A06D10210843A065E06D012131
:100DA0000843E065084670BD206880684007E8D4C5
:100DB000002070BDE8FFFF7F10B5846AA16D50224E
:100DC00011420DD1A06D012149020843A0652068A0
:100DD00002F00CF900281BD0A07E002807D017E0F5
:100DE000A16DC90624D5204600F0CBFB10BD2068BC
:100DF000016809070CD502F0F5F801460120002929
:100E00000AD0A16D20221143A165E16D0143E16586
:100E1000204600F0ADFB10BD21684A680C239A43C0
:100E20004A60A16DFF22013291430143A165EFE7C2
:100E3000216D496B884710BD10B5806A816D4022D5
:100E400011438165C16D04221143C16500F099FB16
:100E500010BD10B5806A00F093FB10BDF8B50446D4
:100E6000006881688907CD0F02F0B8F800282AD001
:100E7000002D28D120688168052211401025012607
:100E8000012914D18168114A1140891C81602168AF
:100E90000320086001F0ECF8074610E001F0E8F8E4
:100EA000C01B02280BD920688068C00707D0A06D3E
:100EB0002843A065E06D3043E0650120F8BD20685F
:100EC0008068C007EAD10020F8BD0000E8FFFF7F7E
:100ED000F8B5044600200090206802F07FF8002852
:100EE00045D120688168234A10261140002930D15D
:100EF0008168D5432940491C81601F48006807214B
:100F00008905084000020AD51D481C490068FFF702
:100F1000F1F8401C00E0401E00900028FBD1607EEC
:100F2000012824D001F0A4F807461BE002F056F88F
:100F3000002804D1206881682940491C816001F0A3
:100F400097F8C01B02280DD920680068C043C0076D
:100F500008D0A06D3043A065E06D01210843E06535
:100F60000846F8BD20680168C943C907DED10020E2
:100F7000F8BD00001700008008270140400D030065
:100F80004800002070B586B0002414216846FFF7A1
:100F9000CEF800200190FF250120184E0135029067
:100FA00000956946304600F0A9FF04E0641CE4B2F5
:100FB000012003F0F1FC2946304601F04DF80028ED
:100FC00003D0642C14D2002407E0642CEED30FE08D
:100FD000641CE4B2012003F0DFFC2946304601F036
:100FE0003BF8002802D0642CF2D301E0642C02D339
:100FF000012006B070BD0020FBE700000004005097
:1010000070B50024FF250135144E04E0641CE4B2E1
:10101000012003F0C1FC2946304601F01DF80028EC
:1010200001D0642CF2D3002404E0641CE4B201205B
:1010300003F0B2FC2946304601F00EF8002801D139
:10104000642CF2D3282003F0A7FC2946304601F097
:1010500003F8002800D0012070BD000000040050FB
:1010600070B5002004464006050EFFF7C9FF641C5A
:101070002843E4B2082CF6D370BDFFB583B00D460B
:10108000064600F025F8FFF77DFF002802D001207A
:1010900007B0F0BD00246F46FFF7E2FF3855641C2F
:1010A000E4B2052CF8D36A46117850789378D77853
:1010B0000C18DA19A4186A461279944205D13170D5
:1010C000287005980370069807700020E0E700007C
:1010D00030B585B014216846FFF729F8012001904A
:1010E0000290FF2402200D4D0134039000946946C4
:1010F000284600F003FF00222146284600F0B1FFF9
:10110000142000F04FFE01222146284600F0A9FFDE
:101110001E2003F041FC05B030BD0000000400506B
:1011200010B5024800F04AFD10BD00003801002053
:1011300010B5024800F042FD10BD0000280200205A
:1011400010B50446006C09498008800040186064AE
:10115000207814210838FEF7CDFF04498031A164BE
:10116000C106C90E01208840E06410BD000802409D
:101170000179084B8906890E8A00D2180265054A52
:101180004432491E42658A07920F012191408165D0
:1011900070470000FC080240F0B5846CC56C6560C7
:1011A000046D002C02D0446D856D65600B4C656844
:1011B000066C1C273E400127B7403D43656004682C
:1011C00063608368102B036803D099600068C26075
:1011D000F0BD9A600068C160F0BD000000000240F0
:1011E00010B5FF20013000F0F1FD10BD72B6FEE732
:1011F00030B585B014216846FEF799FF01200190B3
:101200000290FF240220094D0134039000946946A6
:10121000284600F073FE01222146284600F021FFF7
:10122000FFF756FFFFF7AEFE05B030BD00040050DB
:1012300010B502220249034800F0B0FB10BD0000C7
:1012400034000020D4000020FFB5002425E00198E0
:1012500021010F3083B20098081801460F318AB27D
:1012600080B2019902F04AF90999002660014718F5
:101270000025B95D8020E840014201D0029800E0DD
:10128000039801F097FE6D1CADB2082DF1D3761CCA
:10129000B6B2202EECD3641CE4B20A988442D6DBAA
:1012A000FFBD0000FFB589B0002536E01298405D13
:1012B000A12837D202011C4B0020694614181C5D7E
:1012C0000C54401C1028F9DB0026E80008900A980E
:1012D00000243718E017400F0019C0086946C00005
:1012E0008A5D201A8021C14009980A4206D001195E
:1012F00008980B9A0818B9B280B205E0011908984D
:101300000C9A0818B9B280B200F010F8641C082CCE
:10131000E0DB761C102EDADB6D1C1298FEF712FF54
:10132000A842C3D80DB0F0BDFC4A000810B5144661
:101330004A1C93B2421C92B202F0E0F8204601F03F
:1013400039FE10BD7047704770477047F8B50027E9
:101350000646044640360097307D0D4601280FD0E2
:1013600001203075206801F03DFE00280AD0A06DF4
:1013700020210843A0650127002030753846F8BDBC
:101380000220F8BD686802287ED001222169D207B8
:10139000914202D0121D914206D120682968826ACA
:1013A0004903490B0A436EE0C206D20E0F20216E9C
:1013B000904081432868430302D0C3074BD102E029
:1013C0004000C00E48E0830701D5012044E04307F8
:1013D00001D5022040E0030701D503203CE0C3060D
:1013E00001D5042038E0830601D5052034E043060A
:1013F00001D5062030E0030601D507202CE0C30507
:1014000001D5082028E0830501D5092024E0430503
:1014100001D50A2020E0030501D50B201CE0C30400
:1014200001D50C2018E0830401D50D2014E04304FD
:1014300001D50E2010E0030401D50F200CE0C303FA
:1014400001D5102008E0830301D5112004E04003FA
:1014500001D5122000E00020904001432166696818
:10146000E2698808401C904210D820682B68826A84
:101470009C46C906C90E0F238B409A4363469B00C6
:101480001B0F8B401A4300E03BE082622168AB688F
:1014900028684A690002824318404001400902431B
:1014A0004A612868002800DB66E72B4A1168072399
:1014B0009B051940294B984214D10B0212D4C0024B
:1014C0000143104601F09AFD264825490068FEF7C1
:1014D00011FE0C21401C484300E0401E00900028F3
:1014E000FBD149E7204B984203D1CB0101D48002C4
:1014F00005E01E4B9842D7D14802D5D4580201438B
:1015000025E001212069C907884202D0091D8842CF
:1015100006D120682968826A4903490B8A4382629E
:1015200028680028C0DA0C4A116807239B05194077
:101530000A4B984201D1C00208E00B4B984201D1FE
:10154000800203E0094B9842AED14002814310462D
:1015500001F054FD10E7000008270140001000B022
:10156000400D030048000020004000B8002000B4F7
:1015700010B5024800F06CFA10BD0000D400002045
:1015800070477047F8B50446006806684568B007BC
:101590000FD5A8070DD5A06DC00604D4A06D0121FC
:1015A000C9020843A0652046FFF7CDFE216802204E
:1015B0000860474F700701D5680703D4300728D566
:1015C000280726D5A06DC00604D4A06D01214902CC
:1015D0000843A065206801F009FD002813D0A07E13
:1015E000002810D12068016809070CD501F0FAFC29
:1015F00001460120002960D0A16D20221143A16580
:10160000E16D0143E1652046FFF7B2FF21680C2040
:10161000086030060CD528060AD5A06D0121090402
:101620000843A065204600F065F921688020086025
:10163000F0050BD5E80509D5A06D01214904084343
:10164000A0652046FFF780FE20680760B0050DD535
:10165000A8050BD5A06D012189040843A06520468B
:10166000FFF773FE0120216840020860F00618D5DC
:10167000E80616D5206B002804D02068C0688007D3
:10168000800F0BD0A06D012189020843A065E06D99
:1016900002210843E0652046FFF773FF2168102010
:1016A0000860B00408D5A80406D52046FFF74AFE16
:1016B0000120216840030860F8BD21684A680C23B6
:1016C0009A434A60A16DB9430143A1659BE70000BD
:1016D00000010000FEB50027044601973E46029730
:1016E0000097002805D02546A06D2035002802D09F
:1016F00007E00120FEBD204600F0FEF8E66554201C
:10170000065520688168C900C90F12D18168724AE4
:101710001140012212071143816071486F4900682E
:10172000FEF7E8FC4000801C00E0401E009000280E
:10173000FBD120688168C900C90F08D1A16D1022B2
:101740001143A165E16D01221143E165174601F0E6
:1017500049FCA16DC90601D4002804D0A06D102158
:101760000843A065B4E0A06DFF2101318843022148
:101770000843A065206801F031FC00286DD1217E6E
:10178000A06889030843617ECA03A17E4B031A4304
:101790001043226B002A01D0012212031043E26899
:1017A00010432269002A02DA5200520801E00122A5
:1017B000520510432A7B52001043019A10432A78A5
:1017C000012A09D1002922D0A16D20221143A1654F
:1017D000E16D01221143E165616A002906D0FF2312
:1017E000C1331940A26A0143104608432168CA6800
:1017F0003C4B1A400243CA606168029A890F89070C
:10180000E06C0A4310432A7F012A04D00CE0012136
:1018100009040843E0E7636C226C491C1A43A36C7B
:101820000B4311461943084321680A692E4B1A409D
:1018300002430A6103216068890788420DD0590775
:1018400088420AD04900884207D0284A91680F236D
:101850009B0499431840014391600021626B20680A
:1018600001F0D3FB2249A26B206801F0CEFB0F20D0
:101870002169C04300291CD00122520591420AD19E
:1018800021688A6A227F9200121FD206D20E9040EF
:10189000226E1043886220684069616B4007400FE8
:1018A00088420BD1E665A06D80088000401CA065D1
:1018B0000FE021688A6A02438A62ECE7A06D022188
:1018C000884310210843A065E06D01210843E065CD
:1018D00001273846FEBD0000E8FFFF7F400D0300F2
:1018E000480000200102DEFF02FCFF1F002701402C
:1018F00004FFFF077047000070B586B0064614214C
:101900006846FEF714FC2149306888423BD12048E4
:101910000268012109050A43026000680840059039
:101920001B484038416B012211434163406B002545
:101930001040059003200090019005206946029513
:10194000000700F0DBFA144C12482060A560052067
:10195000E56060608020206140006061E56180009A
:101960002562A061204600F085F9002801D0FFF72C
:101970003DFC3465002211460C20A66200F0E0FB1D
:101980000C2000F0D1FB06B070BD00000024014027
:10199000401002400800024038010020F7B504461C
:1019A000006801F01FFB002845D125464035287D01
:1019B000012840D001272F752068C1681F4EC90734
:1019C0000CD101F00BFB002804D020688168314065
:1019D000891C81602068C1683943C1602046FFF7D7
:1019E00077FA002826D1A06D15490840FF21013162
:1019F0000843A0650020E065226D1249D162226D86
:101A000011491163226D1149516322681C21116033
:101A10002875206841681022114341602168206DBB
:101A20004031029B019A00F077F921688A683240C0
:101A3000121D8A60FEBD0220FEBD0000E8FFFF7F90
:101A4000FEF1FFFFB90D0008530E0008390E000823
:101A5000F8B5064604464036307D012807D00127F8
:101A600037752046FFF778F9050002D028E00220FC
:101A7000F8BD206D2521095C022907D100F024F86A
:101A8000050003D0A06D40210843A065206841688F
:101A9000102291434160002D204602D0FFF7DEF96D
:101AA00009E0FFF7DBF9050005D1A06DFF21013149
:101AB00088433843A0652068C16849084900C1606F
:101AC000002030752846F8BDF0B5002808D0014642
:101AD00020314A79022A05D00422C263002008710D
:101AE0000120F0BD026813680E24A3431360426C0A
:101AF0001468FF2301339C4314600268146864086F
:101B0000640014600C4A5568066C1C2426400124AD
:101B10002746B7403D435560826CC56C5560026DE9
:101B2000002A05D015689D431560826D406D4260A6
:101B30004C7100200871F0BD00000240F8B500248F
:101B4000024620325179022903D00421C1630124C5
:101B50002DE001680B680E25AB430B6001680B6834
:101B60005B085B000B60416C0B68FF250135AB43E4
:101B70000B6010494D68066C1C231E4001231F4654
:101B8000B7403D434D60816CC56C4D60016D0029CF
:101B900006D00E681D02AE430E60416D856D4D602E
:101BA000537100211171816B002900D088472046B4
:101BB000F8BD000000000240C06B7047F0B42C4933
:101BC0000C6802681368056C1C273D400426AE4073
:101BD000264211D05E070FD513689B0603D4146804
:101BE00004239C4314604B68046C04223C40A240D4
:101BF00013434B60016B1CE00227AF4006462740B1
:101C00002036002F19D09F0717D513689B0605D4DF
:101C100013680A24A3431360012272714B68046C99
:101C20001C2214400222A24013434B600021317158
:101C3000C16A00291AD0F0BC08470827AF402742E4
:101C400014D01B0712D513680E24A34313604B68EE
:101C5000046C1C22144001221546A5402B434B6006
:101C6000C263727100213171416BE2E7F0BC7047D1
:101C70000000024070B504003FD0254825681421BB
:101C80002818FEF737FA8000206402202646203606
:101C9000707128681F4908402860E168A06862697F
:101CA0000843216911430843A1690843E1690843D6
:101CB000216A084321680A68104308602046FFF73C
:101CC0003FFA0121A06889030025884200D16560A0
:101CD0002079616C8006800E0860A06CE16C416028
:101CE0006068401E03280AD82046FFF741FA206D9D
:101CF0000560606DA16D416004E0012070BD256547
:101D00006565A565E563012070713571002070BDC2
:101D1000F8FFFDBF0F80FFFFF8B504468C4620306A
:101D20000179002501290BD0012606714179002790
:101D3000012907D08021E163077101252846F8BDFC
:101D40000220F8BD02214171E7632068016849085B
:101D50004900016061462046FFF71EFA206B00280B
:101D60002068016801D00E2205E004229143016041
:101D7000206801680A2211430160606C0168CA038F
:101D8000074902D502680A430260206D002802D08C
:101D900002680A4302602068016831430160CDE7B0
:101DA0000001000070B5044600F062F90546601CB1
:101DB00002D004480078241800F05AF9401BA042D1
:101DC000FAD370BD3C0000207047000070B5084D8C
:101DD0000446E868204203D0EC60204600F00AF890
:101DE0002869204203D02C612046FFF7EDFF70BD2B
:101DF00000180240F8B5FFF71BFA012002F0CCFDF5
:101E0000FFF716FA3B48008802F0E8FD394D10272D
:101E1000263D2C462E1D0E3C052814D0032830D01C
:101E200004283AD0012843D002280BD1207810286A
:101E300053D0112855D0122857D0132802D17078CA
:101E4000401E7070F8BD2C4801F0EAF82078784008
:101E500001092070012910D00009F3D1264801F0B2
:101E6000DFF8244829782438017069784170317886
:101E7000001D017071784170F8BD1F4801F0D0F865
:101E8000F8BD207801090129FAD1401EC0B22070A6
:101E90000F28F5D113202070F8BD20780109012901
:101EA000FAD1401CC0B220701428F5D12770F8BDBB
:101EB0002078102808D0112809D012280AD0132819
:101EC000F5D17078401CBCE72878401C07E06878A2
:101ED000401C08E03078401C09E02878401E28703B
:101EE000F8BD6878401E6870F8BD3078401E3070CC
:101EF000F8BD000034000020E0FF0000F0B5002332
:101F000003249AE02A4601259D402A407ED00E797E
:101F1000B607B60F012E01D0022E16D186682746CD
:101F2000B4465E00B646B7406646BE43B446CF6888
:101F30007646B7406646374387604668AE430D79BC
:101F4000ED06ED0F9D40354345600D79ED43AD073E
:101F500008D0C5685F002646BE40B5438E68BE40C7
:101F60002E43C6600D79AD07AD0F022D0ED1DD08F1
:101F7000AD002D18AC462D6A5E07F60E0F27B74050
:101F8000BD430F69B7402F4365462F6205685F0068
:101F90002646BE40B5430E79B607B60FBE402E4367
:101FA00006604D68AD03AD0F46D09E08264DB600C5
:101FB0007519AC462D6E9E07F60E0F27B740BD4330
:101FC00005273F07B84201D100270FE01F4FB84255
:101FD00001D101270AE01E4FB84201D1022705E0D6
:101FE0001C4FB84201D1032700E00527B7402F431B
:101FF000154D664637662D684E689543F60200D546
:102000001543114F3D607D68954300E014E04E6834
:10201000B60200D515437D600B4D80356E684F6864
:102020009643BF0300D516436E602E684F689643F3
:10203000FF0300D516432E605B1C0A681546DA4084
:1020400000D05FE7F0BD000000180240000400501F
:1020500000080050000C00500069084000D001202A
:102060007047002A01D0816170478162704700008B
:1020700001488068704700003C00002002488168E9
:1020800002788918816070473C00002010B508482C
:1020900000240168821511430160204600F00AF80F
:1020A000002801D0012401E000F028F8204610BDEE
:1020B0000020024070B50F4E0024317805460029FB
:1020C00015D07D20C000FEF715F801460A480068CB
:1020D000FEF710F800F0F6FB002808D1042D06D218
:1020E00000222946401E00F02BF8756000E0012414
:1020F000204670BD3C0000204800002008B509487B
:1021000001680122114301600068104000900548F9
:102110004038C26B01040A43C263C06B08400090A0
:1021200008BD000040100240002805DBC106C90EB2
:1021300001208840014908607047000000E100E08C
:1021400010B501F099FF10BD10B50F4C21680322A6
:102150005202914301432160C11FFF39FA390ED168
:102160000A480621006848430949FDF7C3FF401C9F
:1021700002E0002805D0401E61694905F9D400201D
:1021800010BD032010BD000000700040480000207A
:1021900040420F00F8B50446006800264D4D80030C
:1021A00058D54C4800274038C06BC00009D4494876
:1021B0004038C26B01040A43C263C06B0840012768
:1021C000009045480168821511430160FFF750FFF8
:1021D000009005E0FFF74CFF0099401A022825D82F
:1021E0003D480068C005F5D5E869032109020840AB
:1021F0000FD0616981420CD0E86903210902EA69C4
:102200008843012109040A43EA61EA698A43EA61D1
:10221000E861C0070FD0FFF72BFF009008E0FFF741
:1022200027FF0099411A2D48814201D9032609E070
:10223000E8698007F3D5E8690321090288436169E9
:102240000843E861002F05D022484038C26B0104E2
:102250008A43C2632078C00705D068696168800836
:102260008000084368612078800606D568690321EC
:1022700009038843A168084368612088400411D598
:10228000686921698000800808436861012120692C
:102290008907884206D10F484038C16801221204DC
:1022A0001143C1602088000512D5686903218903A4
:1022B0008843E168084368610121E0688903884236
:1022C00006D104484038C168012212041143C1609C
:1022D0003046F8BD401002400070004088130000F6
:1022E000F8B50F46060043D04D4D28684007400F13
:1022F000B84213D22868C008C00038432860FFF7EE
:10230000B7FE044605E0FFF7B3FE011B45488142D6
:1023100061D828684007400FB842F4D13068424C79
:1023200081070DD5400704D5A0680721090308439C
:10233000A060A0680F2109028843B1680843A0602B
:102340003078C00732D0706801280AD002280BD03C
:1023500000280FD03449403103280ED0C9698907BD
:1023600004E02168890301E021688901002906DB76
:102370000120F8BD21684905F8E7096AEFE7A1687F
:10238000C908C9000143A160FFF772FE009006E092
:10239000FFF76EFE0099411A224881421BD8A068BF
:1023A000382108407168C9008842F1D12868400787
:1023B000400FB84217D91A480168C908C900394303
:1023C0000160FFF755FE054607E0FFF751FE411B90
:1023D0001448814201D90320F8BD11480068400724
:1023E000400FB842F1D13078400706D5A0680721E8
:1023F00009038843F1680843A06000F031F8A16840
:102400003C2289091140094A515CC906C90EC840DD
:102410000749086007480068FFF74CFEF8BD000058
:10242000002002408813000000100240C86200082B
:1024300048000020400000200648074900688968DD
:10244000064A4904490F8900515CC906C90EC840B3
:102450007047000048000020001002400863000898
:1024600010B5204CA068204A8006400F16D0A06806
:102470008006410F501001290FD0A1688906490F2D
:10248000022912D0A0688006400F042823D0A0683B
:102490008006400F032821D0002010BD20680121B4
:1024A0008004400F8140104612E0E1688B07E1682C
:1024B0009B0F4906490F491C032B00D01046FDF71E
:1024C00019FEE1684904490E4843E168490F491C77
:1024D000FDF710FE10BD0120C00310BD7D200002DD
:1024E00010BD0000001002400024F400F8B5040004
:1024F0007ED020783827C007E94D002846D0A8684C
:10250000E96838408907890F102802D008280BD0C5
:1025100001E0032908D001206268000482420AD148
:1025200029680143296015E0286880032ED560687A
:102530000028DDD02AE0052301211B0489049A42EA
:102540002A6802D10A432A60EAE782432A6028689F
:1025500088432860606800280CD0FFF789FD064694
:1025600004E0FFF785FD801B642873D8286880038A
:10257000F7D50BE0FFF77CFD064604E0FFF778FD9A
:10258000801B6428F1D828688003F7D4207880075E
:1025900069D5A868E96838408A070721920FC902FF
:1025A000102802D0002813D001E0022A10D0E068E1
:1025B000002846D028688843216908432860286895
:1025C000FF21013108432860FFF752FD06462CE049
:1025D0002A68520502D5E268002A89D06A687F23FA
:1025E0001B029A4363691B021A436A60002800E0D9
:1025F0008DE00ED128688843216908432860286847
:1026000001218004400F8140A648FDF773FDA649D3
:102610000860A6480068FFF74DFD002877D122E04A
:10262000FFF726FD801B02289FD828684005F7D5B4
:1026300068687F210902884361690902084368606C
:1026400011E02968FF20013081432960FFF710FD68
:10265000064605E098E0FFF70BFD801B022884D8B2
:1026600028684005F7D42078914E00072ED5A86839
:102670008006400F03280AD0A0690028306A16D0CF
:10268000012108433062FFF7F3FC07460BE0306A94
:1026900080071BD5A06900289FD017E0FFF7E8FC52
:1026A000C01B022870D8306A8007F7D50EE04008BA
:1026B00040003062FFF7DCFC074604E0FFF7D8FC7F
:1026C000C01B022860D8306A8007F7D42078400702
:1026D0006CD5A86800278006400F042818D0E86B46
:1026E000C00008D4E96B012000070143E963E96BEE
:1026F0000140012700916F480168C90519D401689C
:10270000821511430160FFF7B3FC00900DE083E0F8
:10271000F06980074AD5A06800287DD046E0FFF721
:10272000A7FC0099401A02282ED862480068C0050C
:10273000F5D5A168012910D004200529F16911D02F
:1027400049084900F161F1698143F161A0680028FD
:1027500016D0FFF78DFC00900EE0F06901210843D0
:10276000F061F3E70143F161F7E7FFF781FC0099BE
:10277000411A5148814265D8F0698007F5D50EE0CD
:10278000FFF776FC009007E05CE0FFF771FC009932
:10279000411A4948814255D8F0698007F5D4002F85
:1027A00004D0E96B012000078143E963E069002858
:1027B00073D0A9688906490F02294DD00126360633
:1027C0000228286805D0B0432860FFF751FC044672
:1027D0003AE0B0432860FFF74BFC074604E0FFF700
:1027E00047FCC01B02282DD828688001F7D4616AF5
:1027F000206AA26A0843E16A120211430843216B6E
:102800000843E9682D4A11400843E86028683043CE
:102810002860E868012100E03DE009070843E8601E
:10282000FFF726FC044604E0FFF722FC001B022809
:1028300008D828688001F7D52FE0FFF719FC001BA6
:10284000022801D90320F8BD28688001F5D4E86882
:102850001B490840E86020E00128F4D0E868226ABB
:102860008107890F914216D17021626A014091421D
:1028700011D17F21A26A09020140120291420AD1BC
:102880001F214904E26A0140914204D1400F216BAB
:102890004007884201D00120F8BD0020F8BD0000AB
:1028A000001002400024F4004800002040000020F6
:1028B0004010024000700040881300008C80C11F4F
:1028C000FCFFFEEF094910B5401E884201D90120E6
:1028D00010BD074C60610321081F01F0CDFB0020F3
:1028E000A06107202061002010BD0000FFFFFF0055
:1028F00000E000E010B5014680310A79012A15D0C8
:1029000001220A7124228A6002681368146864082C
:10291000640014600122520793430022426600685B
:102920000360202088600A71104610BD022010BD8F
:102930007047704770B504460546803420790128F9
:102940001AD0012020712420A0602868066802683F
:102950005208520002602868826807235B069A4387
:102960000A438260284600F05BFF2868066020204A
:10297000A0600020207170BD022070BD70B50446BB
:10298000054680342079012819D0012020712420A7
:10299000A060286806680268520852000260286831
:1029A0008268D200D2080A438260284600F038FFCD
:1029B000286806602020A0600020207170BD0220E1
:1029C00070BD70477047F8B5054604468035A86865
:1029D000EE6821688A6810271206002A1BDA21286F
:1029E00019D1EFF31080012282F310888A688023C6
:1029F0009A438A6080F31088E06F002808D0FFF7C0
:102A000063F8002804D0E06FFFF7D6F8202824D020
:102A1000204601F0ABF82168886840061BD5222EBD
:102A200019D1EFF31080012282F310888A684023C5
:102A30009A438A6080F310882868002808D0FFF73E
:102A400043F8002804D02868FFF7B6F8202804D0FF
:102A5000204601F059F80020F8BD2F610320F8BD91
:102A600070470000F8B503680446D96918689A6889
:102A7000B44D0E462E4025468035002E75D0B24E00
:102A8000B24F1640074037436ED0CF0706D0C70578
:102A900004D501271F622B693B432B618B0708D5A7
:102AA000D30706D0276802233B622B6904273B43E8
:102AB0002B614B0708D5D30706D0276804233B6258
:102AC0002B6902273B432B610B0709D520230340C9
:102AD000334305D02668082333622E691E432E61D6
:102AE0000B0509D5430107D501232668DB023362B4
:102AF0002B69202633432B612B69002B42D089069A
:102B00000AD520210840C9050A40104304D0616F4E
:102B1000002901D02046884728692168896849062C
:102B200002D42821084232D0204600F0EDFF21686F
:102B30008868400627D5EFF31080012282F31088C1
:102B40008B68402293438B6080F3108828680028AC
:102B500019D07F4981632868FEF7F0FF002811D063
:102B60002868816B0DE000E017E08E0615D501277F
:102B700020263F07064017403E430ED0616FB5E068
:102B800020468847F8BD2046FFF76AFFF8BD20467B
:102B9000FFF766FF00202861F8BDE66E012E7DD1AB
:102BA000CE067BD5C60679D510221A6223689868AE
:102BB000264640064036002849DA296808684068F9
:102BC0000004000CE8D0B78B8742E5D9F083086891
:102BD0000068800634D4EFF31080012181F310885F
:102BE00019681701B943196080F31088EFF310805A
:102BF000012181F3108821688B685B085B008B6082
:102C000080F31088EFF31080012181F31088216890
:102C10008B684027BB438B6080F310882020E860DE
:102C20000020E066EFF31080012181F31088216815
:102C30000B6893430B6080F310882868FEF744FF0D
:102C400002202067B08BF18B401A81B235E0B08B47
:102C5000F18B401A81B2F08B00289DD000299BD0C7
:102C6000EFF31080012686F310881E68FF272137B6
:102C7000BE431E6080F31088EFF31080012383F3BE
:102C8000108823689E68304FFF433E409E6080F36B
:102C900010882020E8600020E06600E011E0606716
:102CA000EFF31080012383F3108823681D68954398
:102CB0001D6080F31088022020672046FFF738FE51
:102CC000F8BDCE0208D5560206D5012000051862CF
:102CD0002046FFF777FEF8BD0E060BD501278026AC
:102CE000FF0506403A40164304D0A16F002900D0EA
:102CF00046E7F8BD4A0614D5420612D52046EFF342
:102D00001081012282F310881A684024A2431A60BD
:102D100081F310882021A9600021816700F047F924
:102D2000F8BD0A0205D5420003D52046FFF749FE4B
:102D3000F8BDC901FCD50028FADA2046FFF7F9FDF5
:102D4000F8BD00000F080000010000102001000481
:102D5000E939000870B5040005D025468035A8681B
:102D6000002802D006E0012070BD00202871204616
:102D700000F026F82420A86020680168490849006E
:102D80000160A06A002802D0204600F06BFD2046BA
:102D900000F00AFF0128E7D0206841680922D2022A
:102DA00091434160206881682A22914381602068B4
:102DB0000168012211430160204600F0B9FD70BD99
:102DC00070B58CB0064614216846FDF7B0F918219D
:102DD00005A8FDF7ACF927493068884248D101249D
:102DE000002505A806950594FFF7D4F9002801D021
:102DF000FEF7FCF920480268012189030A430260BA
:102E0000006808400B901C484038416B21434163E7
:102E1000406B0295C007C00F0B900320400200904A
:102E20000220019005206946039504940007FFF7EE
:102E300065F8134C11482060A5603220E5606060A1
:102E40006561A561E5618020256220612046FEF76D
:102E500011FF002801D0FEF7C9F98020845100221B
:102E600011461B20A662FFF76BF91B20FFF75CF9E8
:102E70000CB070BD00380140401002401C00024000
:102E80002802002070B58C231B58202B01D0022073
:102E900070BD00290BD0002A09D0012483682403C7
:102EA000A34206D10369002B03D1CB0701D0012037
:102EB00070BD0023C366046863681B020BD5EFF383
:102EC0001083012585F3108825680126B606354351
:102ED000256083F3108800F01BFF70BD70477047BA
:102EE000FFB5064604468036B06883B00D462028FC
:102EF00002D0022007B0F0BD002D0CD005980028AC
:102F000009D00120A1680003814206D12069002870
:102F100003D1E80701D00120ECE700203061212037
:102F2000B060FFF7A5F80190274640370598B882B2
:102F30000598F8820120A1680003814202D120692E
:102F4000002802D00295002515E00020029012E032
:102F500000228021204600F031FF002818D102987D
:102F6000002819D02168007888620298401C0290DD
:102F7000F88A401EF882F88A019B00280698009083
:102F8000E6D100224021204600F018FF00280AD098
:102F90002020B0600320ADE728882168C005C00D5F
:102FA0008862AD1CE4E72020B0600020A2E77047F3
:102FB000FEE7000070B50125ED030526360704463F
:102FC000B562054910208861200A00F0DFFBE0B2FD
:102FD00000F0DCFBB56170BD000400508068C007E4
:102FE000C00F704780684007C00F7047C068000579
:102FF000800F01D00020704701207047026807232E
:103000009B059A430A430260704710B54369042444
:10301000214007248C40A3438A401343436110BDE1
:1030200070B506467F2300211A46084600F066FA6E
:103030002C2000F09FFA002400253046FFF7BAFF4D
:103040006D1C802DF9D3641C802CF5D370BD00005D
:1030500010B50A20FEF7A6FE012240212448FFF702
:1030600000F8112000F086FA0320FEF79BFE1120E5
:1030700000F080FA0520FEF795FE362000F07AFA7F
:103080000520FEF78FFE362000F074FA0520FEF7CB
:1030900089FEC82000F05EFA0520FEF783FEC820F6
:1030A00000F058FA0520FEF77DFE3A2000F062FAA3
:1030B0000520FEF777FE3A2000F05CFA0520FEF7C7
:1030C00071FE052000F046FA0520FEF76BFE052094
:1030D00000F040FA1420FEF765FE292000F04AFABD
:1030E0000520FEF75FFE292000F044FA10BD000025
:1030F00000040050FEB5EC4CEC4D2078010901298C
:103100007ED00009EA4F012600287AD12079FDF708
:1031100009FAE84AE84BFDF795F901910090E0784B
:10312000FDF700FA019B009AFDF7D8F8FDF71CFAAD
:1031300002900521E1480022019100902B461146A2
:103140001020FEF781F8DD480325A0300090D74B12
:103150000022202101951020FEF776F80298FDF755
:10316000EFF902460B46D6A1D74800F059FFD648E2
:103170000090CE4B002220214020FEF793F83846E5
:1031800005214030002201910090C84B30211046AB
:10319000FEF75AF86278CDA1CB4800F041FFCA484B
:1031A0000090C24B002230215020FEF77BF83846B9
:1031B00060380090BD4B0022402101952020FEF791
:1031C00043F8254610356878FDF7A4F90299FDF714
:1031D000F1F90CD2B54B0022402150200097019606
:1031E000FEF732F800220221BA48FEF73AFFAE4855
:1031F00010304078FDF78EF90299FDF7D1F901E022
:1032000033E0E2E00ED2AA48A84B20300090002222
:10321000402101965020FEF717F801220221AD4807
:10322000FEF71FFFA2480421E038019100909F4B58
:10323000002250211020FEF707F89B4D61781435CD
:103240002878884207D3281F0078FDF763F9029990
:10325000FDF7A6F97DD25021944B00220846009735
:103260000196FDF7F1FF0022CAE090491F311028B6
:1032700003D0E580112805D000E0E18025811228E7
:1032800005D000E02181658113287DD000E06181B7
:10329000A58104219048002201910090834B1146A2
:1032A0002020FDF7D1FF85480325A03000907F4BFB
:1032B0000022102101953020FDF7C6FF87480090BD
:1032C0007A4B0022202101951020FDF7BDFF764F9B
:1032D0000E373878FDF726F902460B4680A17A486A
:1032E00000F09EFE784E0096E388002220214020C8
:1032F000FDF7D8FF78486D4B8038009000223021D0
:1033000001951020FDF7A0FF7878FDF70BF9024634
:103310000B4673A1304600F083FE009623890022FD
:1033200030214020FDF7BEFF61480521403001916A
:1033300000905E4B002240211020FDF785FF64A124
:10334000304600F06DFE00224021584B6020009670
:1033500000E03DE0FDF7A6FF60480090534B0022DF
:10336000502101951020FDF76FFF3F1D3A785EA1B7
:10337000304600F055FE009663890022502140201F
:10338000FDF790FF544800E020E080380090474B64
:103390000022602101951020FDF756FF7A7852A196
:1033A000304600F03DFE0096A389002260214020B7
:1033B000FDF778FF484808218030002201910090F5
:1033C0003A4B70211046FDF73FFFFEBDA18160E73B
:1033D00068786178884208D2334810304078FDF729
:1033E00099F80299FDF7E6F80ED8314850212030BF
:1033F00000902E4B002201960846FDF725FF012282
:1034000001213448FEF72DFE29480421E0300191C6
:103410000090264B002260211020FDF715FF29782F
:103420006078814209D2214B002260215020009710
:103430000196FDF709FF00220DE0697881420ED365
:103440001B481A4B2030009000226021019650202A
:10345000FDF7FAFE012204211E48FEF702FE1F4876
:103460000521A038114C00220191009023467021C3
:103470001046FDF7E9FE0C4834304088FDF752F85D
:103480000C4A1B4B5242FCF7DDFF02460B4619A1CA
:103490000D4800F0C5FD0C48009023460022702125
:1034A0005020FDF7FFFEFEBD00000020E0FF000001
:1034B000DD5C00089A9999999999B93FFD5A0008DD
:1034C000252E32662043000090000020256425252B
:1034D0002020000000040050DD5F0008DD5E0008D1
:1034E00020252E326643000020256425252000007B
:1034F00066664A3F252E326656000000F0B5074644
:103500001C4615460E462A2000F034F8002000F034
:1035100021F8BF1CF8B200F01DF8002000F01AF8E6
:10352000AD1CE8B200F016F82B2000F023F80020C4
:1035300000F010F8F61CF0B200F00CF8002000F0DB
:1035400009F8E41CE0B200F005F82C2000F012F8B5
:10355000F0BD000030B50125ED0305242407A56268
:10356000034A1021916100F011F9A56130BD0000FE
:103570000004005030B50125ED0305242407A562A1
:10358000034A1021916200F001F9A56130BD0000ED
:1035900000040050FEB500241E48009401941C490C
:1035A0000294016084600905C460416004254912E9
:1035B00045610161047644760126867644620221E3
:1035C0008462C161014620310C73046344638463E7
:1035D0000C77C464FEF77EF8002801D0FDF706FEE4
:1035E0000D4800900194694602940A48FDF7AEFE2A
:1035F000002801D0FDF7FAFD6946064800960195BE
:10360000FDF7A4FE002801D0FDF7F0FDFEBD00008F
:1036100000240140D40000200200000408B50C483A
:10362000816B012211438163806B10400022009066
:1036300011460920FEF784FD0920FEF775FD0022E2
:1036400011460A20FEF77CFD0A20FEF76DFD08BD3D
:1036500000100240F0B587B014216846FCF767FD02
:103660002D48416B012529434163416B2940059158
:10367000416B022631434163406BFF21304005908E
:103680002A4608312548FEF7ECFCEF03052000220E
:1036900039460007FEF7E5FC002278211F48FEF7B7
:1036A000E0FC0720002400900294694601950394F1
:1036B0001A48FEF723FC2802009011200004019014
:1036C0000520694602940007FEF718FC00970327BF
:1036D000052001950294694600070397FEF70EFC4A
:1036E0007820009069460397019502940B48FEF7F5
:1036F00005FC28020090694603960195029407484C
:10370000FEF7FCFB002211460720FEF719FD0720FB
:10371000FEF70AFD07B0F0BD0010024000040050A3
:1037200010B5184816490160E121490241600021A5
:103730008160C16001618161C16101620C224162ED
:1037400042618162FFF706FB002801D0FDF74EFDC4
:1037500000210C48FFF712F9002801D0FDF746FDC3
:1037600000210848FFF7E6F8002801D0FDF73EFDEC
:103770000448FFF7BFF8002801D0FDF737FD10BD62
:103780000038014094010020FEE7704730B5082161
:10379000084B20240A46050601D59C6100E09C6286
:1037A0009A619A624006491E000E0906090EF2D17E
:1037B00030BD000000040050704710B5FEF75EFCFD
:1037C00010BD10B592B034216846FCF7B0FC00245F
:1037D00001200D940E940F9440021094FEF7B4FC57
:1037E00002200090C00103904020059004940794AB
:1037F0006846FEF77BFE002801D072B6FEE7072080
:103800000D900E940F94002110940DA8FEF768FD02
:10381000002801D072B6FEE712B010BD704700005C
:10382000F8B50446416E4034002915D0006881681F
:10383000806809014D0F0A4E400F3746315C083F42
:10384000385CC000FCF756FC6085785D715DC00097
:10385000FCF750FC2085F8BD01206085FAE70000E8
:10386000BE62000810B5018D090707D501684A68D6
:103870000123DB039A43836B1A434A60018DC90716
:1038800007D001684A6801235B049A43C36A1A435C
:103890004A60018D890707D501684A6801231B0426
:1038A0009A43036B1A434A60018D490707D50168A3
:1038B0004A6801239B049A43436B1A434A60018D73
:1038C000C90607D50268916801231B039943C36B9E
:1038D00019439160018D890607D501688A68012323
:1038E0005B039A43036C1A438A60018D490612D523
:1038F00003685A6801210905446C8A4322435A60CF
:10390000426C8A4207D10268516803235B059943E0
:10391000836C19435160018D090607D501684A6817
:103920000123DB04C06C9A4302434A6010BD0000CF
:10393000FEB505460026803504462E61FEF798FB4D
:1039400001902068006820270007002817DA254822
:103950000090002239042046019B00F02FFA002835
:103960000DD0EFF31080012181F3108821680A68DF
:1039700080239A430A6080F31088AF6028E02068B3
:103980000068400727D517480090012100228905CB
:103990002046019B00F012FA00281CD0EFF31080A3
:1039A000012181F3108821680A68FF2321339A439B
:1039B0000A6080F31088EFF31080012181F31088F2
:1039C00021688A68520852008A6080F31088EF608C
:1039D0002E710320FEBDAF60EF60E66626672E7194
:1039E0000020FEBDFFFFFF0110B5806A00220146E6
:1039F0004031CA83CA82FFF733F810BDF8B5846A34
:103A00002046803081680546C668206880680027A7
:103A10000006002806DA212904D156200753204643
:103A200000F0A4F820688068400606D5222E04D154
:103A30005E200753204600F067F8286910210843EC
:103A400028612046FFF70CF8F8BD70B501460968FB
:103A5000806A096800228906002938DB5E210A5243
:103A6000EFF31081012383F3108803681C68FF259E
:103A70000135AC431C6081F31088EFF31081012302
:103A800083F3108803689C68640864009C6081F379
:103A90001088EFF31081012383F3108803689C687A
:103AA0004025AC439C6081F3108820238C210B506F
:103AB000C16E01290BD1EFF31081012383F310882C
:103AC00003681C681025AC431C6081F310880267F2
:103AD000C16E012902D0FFF701FA70BD5C21095ABD
:103AE000FEF726FF70BD10B5806A01210167C16E27
:103AF000012902D0FFF7F3F910BD5C21095A4908EA
:103B0000FEF716FF10BD000010B5EFF31081012283
:103B100082F3108802681368FF242134A3431360E2
:103B200081F31088EFF31081012282F3108802687C
:103B300093680D4C2340936081F31088C16E012976
:103B40000BD1EFF31081012282F310880268136811
:103B50001024A343136081F3108820228C210A5083
:103B60000021C166416710BDFEFFFFEF10B5EFF306
:103B70001081012282F3108802681368C024A343D5
:103B8000136081F31088EFF31081012282F3108813
:103B9000026893680124E405A343936081F31088CD
:103BA00020218030816010BDF8B50446806821690D
:103BB000E2690843616900251143226808431168DE
:103BC0004B4B1940014311602068416803221203E6
:103BD0009143E26811434160A169206A084321686A
:103BE0008A68444B1A4002438A602068C16A626A4C
:103BF000090909011143C1623F492068884211D176
:103C00003E4840698007800F0FD0012806D0022867
:103C100002D003280BD103E0022109E0042107E0D0
:103C2000082105E03649884201D1002100E0102139
:103C30000120E369C003334A334E344F834227D116
:103C4000002906D0022907D0042907D008293FD12E
:103C500008E0FEF7F1FB03E0104603E0FEF700FC8E
:103C600000283AD0616A4900715AFCF743FA61684A
:103C700040004A088018FCF73DFA01461039B94265
:103C800026D82249491C01400007400F084322E082
:103C9000002906D0022907D0042907D0082917D106
:103CA00008E0FEF7C9FB03E0104603E0FEF7D8FB8F
:103CB000002812D0616A4900715AFCF71BFA61684A
:103CC0004A088018FCF716FA01461039B94201D9A2
:103CD000012502E080B22168C86020460121403001
:103CE0004185018500206067A0672846F8BD000077
:103CF000F369FFCFFFF4FF1100380140401002408C
:103D0000004400400024F4009E620008EFFF000021
:103D100070B5044681654030828300202546803599
:103D200028612221E9602968002919D0204BCB6243
:103D30002B68204919632B681F495963296813466A
:103D40008863A66D2168324624312868FDF7E4FFB8
:103D5000002805D0102028612020E860012070BDD7
:103D6000206900280CD0EFF31080012181F3108826
:103D700021680A68FF2301331A430A6080F3108820
:103D8000EFF31080012181F31088226893680B43C0
:103D9000936080F31088EFF3108081F3108821681E
:103DA0008A6840231A438A6080F31088002070BD1F
:103DB0004B3A0008E73A0008FD390008FFB581B02A
:103DC00005460E46044680350A9F32E0781C30D006
:103DD000FEF74EF90499401AB84218D8002F16D0B1
:103DE00020680168490724D5802E22D0402E20D09B
:103DF000C169C94309070CD4082606622046FFF7AB
:103E000083FE2E6100202871012005B0F0BD032043
:103E1000FBE7C069C04300050BD401202168C00244
:103E200008622046FFF770FE2020286100202871DC
:103E3000EDE72068C1693046884305D0002103982A
:103E40008142C3D00020E0E70121F8E77CB5224899
:103E50000068C169C9063BD5102101621E48FEF702
:103E6000B2FD1E48006840684021081A1C49C0B2D3
:103E700008701C4A00211154FF23F53340221949D0
:103E80001548FFF72DF8184C184D194B194A1AA16F
:103E9000144800950194FCF75DF916481F4A017813
:103EA00013481170007850702A781D4D2A702378BD
:103EB0001C4C6B70217060701B4840210270437075
:103EC0000848FCF734F9402206490348FEF7DAFFB8
:103ED0000148FEF7C7FD7CBD9401002028020020A8
:103EE0003800002050000020300000202C0000206E
:103EF00028000020240000205345543A545F757078
:103F00003D2564545F6C6F773D2564485F75703D57
:103F10002564485F6C6F773D256400001000002029
:103F2000140000200E00002012000020F0B5204CEC
:103F300085B0206A01282ED11E480168E269891ADD
:103F40007D221201914226D90068E061204634307A
:103F50004088FCF7E7FA184A184BFCF773FA064654
:103F60000F462079FCF7DEFA134A154B5242FCF754
:103F700069FA05460091E078FCF7D4FA2A46009BDE
:103F8000FCF7ACF9024603970296607800900B4666
:103F90000CA000F035F8402217491848FEF772FFD0
:103FA00016480068016810221143016005B0F0BD99
:103FB00000000020440000206666666666664A3F90
:103FC0009999B93FCEC2B6C8A3BA252E326643200E
:103FD00020CAAAB6C8A3BA256425252020566F7426
:103FE0003A252E3266562020D5FDB3A3B9A4D7F7C3
:103FF000D6D00D0A000000005000002094010020DF
:104000000FB410B503A9044B044A029800F020F93C
:1040100010BC08BC04B01847CD4900084C00002073
:104020000FB410B504A9074B02AA039800F010F9C9
:10403000044602A9002000F0A9FC204610BC08BCE0
:1040400004B018478D4900082021020C01D010212E
:104050001046020A01D010460839020901D0104664
:10406000091F820801D01046891E420801D0881E0F
:104070007047081A704700008307FF22DB0E9A4042
:104080008907090E9940002808DB830809489B002E
:104090001B18186890430843186070470007000F0A
:1040A0000838830804489B001B18D86990430843CC
:1040B000D861704700E400E000ED00E002E008C8CD
:1040C000121F08C1002AFAD170477047002001E092
:1040D00001C1121F002AFBD170470000F0B51FB4C8
:1040E00086B00998089A030D0021024314D0514864
:1040F000514A1818504305141198012810981AD0E5
:10410000281A401C00264D4F4D49009601910490FD
:10411000002812DA444211E01198012449A3012831
:1041200001D11098C1430698119A84600360C2605F
:1041300041600BB0F0BD4042E4E704462105002099
:104140003F4A001C51410391029012E0E00707D062
:1041500032463B4601990098FCF774F901910090B2
:1041600032463B4610461946FCF76CF906460F46A8
:104170006410002CEAD10498039B0028029A099944
:10418000089806DAFCF75EF9019B009AFCF75AF9E9
:1041900005E0FCF753FB019B009AFCF74FFB04463C
:1041A0000E460022284BFCF7E1FB03D80020C04359
:1041B000014607E00022254B20463146FCF78EF8E9
:1041C000FCF7B4FB102409E0002C0ADB0A220023D0
:1041D000FCF7FAF9079B30321A55641E02460A436F
:1041E000F2D11122641C079B121B1C19119B012B7D
:1041F00003D0012308430ED10AE0084304D0112064
:1042000010900020119077E71098151A6D1E0BE0A2
:104210001098824202DD00236D1C03E0824201DA25
:1042200000236D1E002BEED0069811998260C160AC
:1042300030C07EE701FCFFFF104D0000000014407D
:104240000000F03F300000000000F0430000E03FBD
:10425000FFB597B0064600251BE2252876D100243D
:104260002746F749049400E00443761C3278012085
:10427000203A90400842F7D130782A280ED0022206
:10428000307801463039092916D804990A23594350
:10429000303940181443761C0490F1E7189802C88E
:1042A00004911890002904DA012040030443484295
:1042B000049002200443761C30782E2814D1042068
:1042C00004437078761C2A2809D11898761C80C877
:1042D000189009E00A214F43303FC719761C307807
:1042E000014630390929F5D930786C2810D006DC20
:1042F0004C281AD068280ED06A2817D104E07428F8
:1043000013D07A2812D110E00120400504430CE0BC
:104310000121090501E0032109050C43717881425F
:1043200003D1012000052418761C761C30786628FD
:104330000BD013DC58287DD009DC00287BD0452821
:10434000F6D04628F4D047281AD1A9E118E063280E
:1043500035D0642870D0652812D1A1E170286CD0C6
:1043600008DC6728F1D069287DD06E280DD06F2831
:1043700006D1BCE073282ED0752873D0782859D088
:104380001A9A199990476D1C82E16002400F022829
:1043900009D003280DD00428189801680DD00D60AD
:1043A000001D189074E11898EA1701680D604A60C2
:1043B000F6E7189801680D80F2E70D70F0E718989D
:1043C0006A4601781172001D18900020507202A8F0
:1043D0000090012005E0189802C818900020009174
:1043E000C04361070ED5002101E00199491C0191EC
:1043F000B94213DA8142F8DB019A0099895C0029FD
:10440000F3D10BE0002101E00199491C01918142A7
:10441000FADB019A0099895C0029F5D10199049889
:104420001A9B471A21463846199A00F099FA401902
:10443000019903E051E030E115E050E0451807E054
:10444000009800990078491C00911A9A1999904790
:104450000198401E0190401CF2D1214638461A9B1B
:10446000199A12E137E00A200021009001916002C0
:10447000410F022907D0189A01CA1892C217944610
:10448000032908D00AE01898C01DC108C90005C951
:104490001891944607E000B2C2179446042902D14D
:1044A00040B2C1178C4600226146944506DA0A469E
:1044B0000021404291418C462D2102E0210504D586
:1044C0002B216A461173012103E0E10701D020216D
:1044D000F7E7029156E00A200AE0102008E01020D9
:1044E00000900021042004430191082703E00820E4
:1044F0000021019100906002410F022907D0189A13
:1045000001CA189200229446032908D008E018989E
:10451000C01DC108C90005C91891944603E080B2C6
:10452000042900D1C0B20021029121072AD5317897
:104530000D91702906D0009A1021019B4A401A4320
:1045400005D00EE040216A461173012108E0614662
:10455000014306D030216A4611730D99517302212F
:104560000291009A0821019B4A401A430AD16146F0
:10457000014301D1610705D530216A46117301213C
:104580007F1E02913178582904D02EA10E910DA9D9
:104590000D910DE030A1F9E76146019B009AFCF70F
:1045A00013F80E9B8C469B5C0D9A521E0D92137055
:1045B00061460143F0D10D9805A9081A20300190F9
:1045C000600703D501200004844300E0012701981F
:1045D000874201DD381A00E000200199009041185F
:1045E000029809180498401A0490E00306D4214662
:1045F0001A9B199A049800F0B3F94519002706E0B0
:1046000003A81A9AC05D199990476D1C7F1C0298E7
:104610008742F5DBE0030CD521461A9B199A0498D2
:1046200000F09EF9451904E01A9A30201999904734
:104630006D1C0099481E00900029F5DC1FE0000069
:104640000928010030313233343536373839616268
:10465000636465660000000030313233343536372C
:104660003839414243444546000000000D980D99F9
:104670000078491C0D911A9A199990476D1C01995F
:10468000481E01900029F1DC4DE100F059F945196F
:10469000761C3078002800D0DFE528461BB0F0BD3E
:1046A000600700D406271898C01DC108C9004868D3
:1046B0000A680831C30FDB071891190001D09CA1CB
:1046C00008E0210501D59BA104E0E10701D09AA1F2
:1046D00000E09AA14300109130785B0865280CD067
:1046E00006DC452809D046281DD0472841D141E0A5
:1046F000662818D067283CD13CE00021112F01DB4F
:10470000112000E0781C0191009008A911A8FFF782
:10471000E5FC139905910021119A15927F1C1298BE
:104720000197009150E00120C00703900120019003
:1047300008A9009711A8FFF7D1FC139A14990592C4
:104740000022119B009212981593059A019200295C
:1047500001D0104602E0791C40180190381A01D5AA
:10476000019804E04042401E0090781C0190C01B5C
:10477000029043E0012F00DA01270021112F01DD13
:10478000112000E038460191009008A911A8FFF718
:10479000A5FC13990591119A002112981592009188
:1047A000019721070CD40599B94201DB019900E07A
:1047B0000191012904DD159A491E515C302906D06A
:1047C000B84201DA011D05DA0121029115E00199D3
:1047D000491EEDE7002805DC009941180091019978
:1047E000091A03E0019A411C914200DD01910099F0
:1047F000401A401C02900120C0070390200706D4F5
:1048000002990198814202DB0020C04302900020FF
:104810006946C87707AF012103980337C907884263
:1048200024D0022011902B201290039800280CDA3B
:10483000404203902D20129007E00A210398FBF7D5
:1048400059FC30317F1E039039701199481E119028
:104850000029F2DC03980028EFD1791E1298087025
:104860003078202108404530BF1E387006A8C01B94
:10487000C01D039010980078002800D001200199F5
:1048800041180298C0170918039809180498401A8B
:10489000401E0490E00306D421461A9B199A0498FE
:1048A00000F05EF8451910980078002803D01A9A95
:1048B000199990476D1CE00324D521461A9B199A3B
:1048C000049800F04DF845191CE00098002807DB1B
:1048D00000990598884203DD1598405C199901E01C
:1048E000199930201A9A904700986D1C401C00902E
:1048F0000298401E0290002804D11A9A2E2019997D
:1049000090476D1C0199481E01900029DDDC05E0EF
:1049100038781A9A7F1C199990476D1C0399481E84
:1049200003900029F4DC21461A9B199A0498ACE6FE
:104930002D0000002B0000002000000000000000FF
:10494000F8B5044600251E461746880404D405E041
:1049500039462020B0476D1C641EF9D52846F8BDA5
:10496000FFB50446002581B01E46C80301D5302797
:1049700000E02027880404D505E038460399B047B5
:104980006D1C641EF9D5284605B0F0BD0A68531C9D
:104990000B6010707047000070B50A4C0023656909
:1049A0000949A26989694843A1699142FCD09142B1
:1049B00001D2521A01E06E1AB218D3180A46834285
:1049C000F2D370BD00E000E0000000200249CA6997
:1049D0001206FCD588627047003801400F4A014634
:1049E00082182B2A01D2012070470D4A8A18272AE3
:1049F00001D2022070470B4A8A181D2A01D20320D7
:104A00007047094A8A18312A01D204207047074AA0
:104A100081183129FAD205207047000093F7FFFF73
:104A2000C5FDFFFFBFF9FFFF29F4FFFFD7F5FFFF2B
:104A3000FDF72CFBFEF7C5FEFEF70CFEFEF7EEFDC4
:104A4000FEF7A8FDFEF76CFEFEF702FB1B48FEF723
:104A5000E7FA1B4C10202146A0610222343119488C
:104A6000FCF79CFF1748FCF7F3FFFCF7C1FB00289D
:104A70000DD1204634304088FBF754FD124A134BC9
:104A8000FBF7E0FC02460B4611A0FFF7B9FA232022
:104A900060621B20A0624620E0623720012520636F
:104AA000074B1B1D5A1E511E481EFCF7E6FAFFF766
:104AB0003DFAFEF71FFB2562F2E70000E0FF000071
:104AC00000000020D40000206666666666664A3FE5
:104AD000B4ABB8D0C9E8B1B8D5FDB3A3A3ACBFC9D6
:104AE000D2D4CDA8D0C53BB9A4D7F7B5E7D1B9A3E7
:104AF000BA252E3266560D0A0000000000000000A4
:104B000000000000000000000000000000000000A5
:104B10000000000000000000000000000000000095
:104B20000000000000000000000000000000000085
:104B30000000000000000000000000000000000075
:104B40000000000000000000000000000000000065
:104B50000000000000000000000000000000000055
:104B60000000000000000000000000000000000045
:104B7000000000000000000000000000000000181D
:104B800008C80808000000000000000000007F6066
:104B900060606060606060E0602000000000000015
:104BA00000000000000000000000000000001818D5
:104BB00018101010000000000000000000000000AD
:104BC000000000000808080C0C0C000000000000A9
:104BD00000000000000000000000000000006C3831
:104BE00010007CC6701CC67C00000000000010385D
:104BF0006C00780C7CCCCC7600000000000000003B
:104C000000007CC670C0C67C0000000000000000F0
:104C100000006C967CD0D66C000000000000000004
:104C200000007CC60606C67C0000000000000038BC
:104C30006CC6C6FEC6C66C3800000000000000004E
:104C4000001038286C44C6C60000000000000000B8
:104C500000007CC606FEC67C0000000000000000CC
:104C60000000DC666666F60606663C000000006C26
:104C700038F80C7EC6C6C67C000000000000000E9E
:104C80001B18181818181818D87000000000000019
:104C900000FE860C180C0606C67C0000000076DCC0
:104CA0000000780C7CCCCC7600000000000076DCA4
:104CB00000007CC60606C67C00000000000076DC12
:104CC0000000DC666666666600000000000000000A
:104CD000000076999F98996F000000000000000086
:104CE000000000000000000C0606000000000000AC
:104CF0000000000000003C66663C00000000000070
:104D0000000000000000000000000000000000188B
:104D10003C3C3C1818001818000000000000C6C6F3
:104D2000C644000000000000000000000000006C0D
:104D30006CFE6C6C6CFE6C6C000000000018187C43
:104D4000C6C2C07C0686C67C1818000000000000A1
:104D500000C3C60C183063C3000000000000003818
:104D60006C6C3876DCCCCC76000000000000303073
:104D7000306000000000000000000000000000188B
:104D800030606060606030180000000000000018B3
:104D90000C06060606060C180000000000000000C5
:104DA000006C38FE386C00000000000000000000BD
:104DB0001818187E181818000000000000000000E5
:104DC000000000000018181830000000000000006B
:104DD000000000FE000000000000000000000000D5
:104DE0000000000000001818000000000000000291
:104DF000060C183060C08000000000000000007C3D
:104E0000C6CEDEF6E6C6C67C000000000000001834
:104E1000387818181818187E000000000000007C70
:104E2000C6060C183060C6FE000000000000007CC2
:104E3000C606063C0606C67C000000000000000C0A
:104E40001C3C6CCCFE0C0C1E00000000000000FEA0
:104E5000C0C0C0FC0606C67C000000000000003890
:104E600060C0C0FCC6C6C67C00000000000000FE9A
:104E7000C6060C1830303030000000000000007C06
:104E8000C6C6C67CC6C6C67C000000000000007C0A
:104E9000C6C6C67E06060C780000000000000000B2
:104EA00018180000001818000000000000000000A2
:104EB000181800000018183000000000000000065C
:104EC0000C18306030180C060000000000000000D4
:104ED00000007E00007E0000000000000000006076
:104EE00030180C060C183060000000000000007C38
:104EF000C6C60C1818001818000000000000007C3E
:104F0000C6C6DEDEDEDCC07C000000000000001053
:104F1000386CC6C6FEC6C6C600000000000000FC15
:104F20006666667C666666FC000000000000003C69
:104F300066C2C0C0C0C2663C00000000000000F8AD
:104F40006C66666666666CF800000000000000FE95
:104F500066626878686266FE00000000000000FE7D
:104F600066626878686060F0000000000000003C45
:104F700066C2C0C0DEC6663A00000000000000C67F
:104F8000C6C6C6FEC6C6C6C6000000000000003C7D
:104F9000181818181818183C000000000000001E0F
:104FA0000C0C0C0C0CCCCC7800000000000000E6CF
:104FB000666C6C786C6C66E600000000000000F027
:104FC00060606060606266FE00000000000000C675
:104FD000EEFED6C6C6C6C6C600000000000000C66B
:104FE000E6F6FEDECEC6C6C60000000000000038B1
:104FF0006CC6C6C6C6C66C3800000000000000FCC7
:105000006666667C606060F0000000000000007C66
:10501000C6C6C6D6DE7C0C0E00000000000000FCF8
:105020006666667C6C6666E6000000000000007C38
:10503000C6C660380CC6C67C000000000000007EBA
:105040005A1818181818183C00000000000000C674
:10505000C6C6C6C6C6C6C67C00000000000000C6A4
:10506000C6C6C6C6C66C381000000000000000C6E8
:10507000C6C6C6C6D6FEEEC600000000000000C6CA
:10508000C6C66C386CC6C6C600000000000000C66C
:10509000C6C66C383838387C00000000000000FEBE
:1050A000C68C183060C2C6FE000000000000003C44
:1050B000303030303030303C0000000000000080E4
:1050C000C0E070381C0E0602000000000000003C2A
:1050D0000C0C0C0C0C0C0C3C000000000010386C8C
:1050E000C6000000000000000000000000000000FA
:1050F000000000000000000000FE00000000303052
:105100001800000000000000000000000000000087
:105110000000780C7CCCCC7600000000000000E0A1
:105120006060786C666666DC0000000000000000CD
:1051300000007CC6C0C0C67C000000000000001C4F
:105140000C0C3C6CCCCCCC760000000000000000C5
:1051500000007CC6FEC0C67C000000000000001CF1
:105160003632307C30303078000000000000000023
:10517000000076CCCCCC7C0CCC780000000000E0A9
:1051800060606C76666666E600000000000000184D
:10519000180038181818183C00000000000000061D
:1051A00006000E0606060666663C0000000000E0EB
:1051B0006060666C786C66E60000000000000038F5
:1051C000181818181818183C0000000000000000FB
:1051D000000044FED6D6D6D6000000000000000035
:1051E0000000DC66666666660000000000000000E5
:1051F00000007CC6C6C6C67C00000000000000009F
:105200000000DC6666667C6060F000000000000064
:10521000000076CCCCCC7C0C0C1E00000000000002
:105220000000DC76666060F0000000000000000016
:1052300000007CC6701CC67C00000000000000104E
:105240003030FC303030361C000000000000000020
:105250000000CCCCCCCCCC760000000000000000DC
:105260000000C6C6C66C3810000000000000000038
:105270000000C6C6C6D6FE6C00000000000000009C
:105280000000C66C38386CC600000000000000004A
:105290000000C6C6C6C67E060C78000000000000EE
:1052A0000000FECC183066FE000000000000000E7A
:1052B000181818701818180E0000000000000018C8
:1052C00018181800181818180000000000000070C6
:1052D0001818180E1818187000000000000000764A
:1052E000DC000000000000000000000000000000E2
:1052F00000000000000000000000000000000000AE
:10530000000000000000000000000000000000009D
:10531000000000000000000000000000000000008D
:10532000000000000000000000000000000000007D
:105B30000000000000000000000000000000002144
:105B4000F0111011100110020EF40013F8110811D9
:105B500010109014A0184010A003180C06040004A4
:105B6000000FF01820644003801C70E00E1FF0113D
:105B70001011101FF0111011101FF0101000000371
:105B8000800100010001000100010001000100018D
:105B9000000100010001000100038000000000235B
:105BA000F81208120883F84208420813F810002778
:105BB000FCE4A424A424A424A42FFE0000010000DB
:105BC000803FFE222022203FFC2220222023E020B2
:105BD000002FF02410422041C08630380E00000013
:105BE0000000000000000000000000000000003085
:105BF0000030000000300030000000000000000015
:105C00000000000000000000000000000000000094
:105C10000000000000000000000000000004042458
:105C20000424043FA444240424FFE4042404243F63
:105C3000A424A424A42684250404140408004040B9
:105C40004020A020A0011002481426102023F8E0D4
:105C5000082010211020A02040202000200000005B
:105C60000000000000000000000000000000003004
:105C70000030000000300030000000000004042468
:105C80000424043FA444240424FFE4042404243F03
:105C9000A424A424A4268425040414040810401079
:105CA000401040FDF8104810481CC83048D0AA10D9
:105CB000AA5106220200004888444484440000009F
:105CC00000000000000000000000000000000030A4
:105CD0000030000000300030000000000000007FB5
:105CE000FC08200820082008200820FFFE082008C3
:105CF000200820082010201020202040201010080C
:105D000010082000003FF8010001000100FFFE0123
:105D10000002800280044008203018C00600000005
:105D20000000000000000000000000000000000073
:105D30000000000000000000000000000000000063
:105D40000000000000000000000000000000000053
:105D5000000000000000000000000000000000271C
:105D6000F81408140887F84408440817F81120218B
:105D700020E9242528233021202FFE0000010000E7
:105D8000803FFE222022203FFC2220222023E020F0
:105D9000002FF02410422041C08630380E00000051
:105DA00000000000000000000000000000000030C3
:105DB0000030000000300030000000000000000053
:105DC00000000000000000000000000000000000D3
:105DD0000000000000000000000000000000003F84
:105DE000F0201020102850245022902290211021C1
:105DF0001022902292244A484A4006800210001144
:105E0000F011101110FD10111031103910551055EE
:105E1000109110111211121212120E140000000033
:105E20000000000000000000000000000000003042
:105E300000300000003000300000000000000000D2
:105E4000007FFC01000100010001000100010001D0
:105E500000010001000100FFFE0000000009000930
:105E600000090011FE12803280348050F8908010BA
:105E700080108010FC1080108010801080010001C4
:105E80000001003FF82108210821083FF8210821DE
:105E90000821083FF8210A0102010200FE00003F2C
:105EA000FE200020802080208020802FFC20802069
:105EB0008020902088208840805FFE8000000000C5
:105EC00000000000000000000000000000000030A2
:105ED000003000000030003000000000000200022E
:105EE00000020002000200020003F80200020002A9
:105EF000000200020002000200FFFE000020001766
:105F0000FC008440A440945FF440844EA44AA44E14
:105F1000A440C4465458B441144204400C084008FC
:105F2000400FFC1040104033F8320853F892081329
:105F3000F8120813F8120812081FFE1000000000E3
:105F40000000000000000000000000000000003021
:105F5000003000000030003000000000000000FFB2
:105F6000FE020002000200020002400220021002B3
:105F700008020802000200020002000200200017CE
:105F8000FC008440A440945FF440844EA44AA44E94
:105F9000A440C4465458B441144204400C0840087C
:105FA000400FFC1040104033F8320853F8920813A9
:105FB000F8120813F8120812081FFE100000000063
:105FC00000000000000000000000000000000030A1
:105FD00000300000003000300000000000200017FA
:105FE000FC008440A440945FF440844EA44AA44E34
:105FF000A440C4465458B441144204400C0840081C
:10600000400FFC1040104033F8320853F892081348
:10601000F8120813F8120812081FFE1000000021E1
:10602000F0111011100110020EF40013F8110811F4
:1060300010109014A0184010A003180C067FFC4408
:10604000447FFC01007FFC01001FF010101FF010C6
:10605000101FF010101FF01010FFFE0000000000D5
:106060000000000000000000000000000000000030
:106070000000000000000000000000000000000020
:106080000000000000000000000000000000000010
:106090000000000000000000000000000000000000
:1062900000000000000000000000000000000100FD
:1062A00002000400060008000A000C001000200094
:1062B0004000800000010101010307010000080403
:1062C00002040801010100000000000000000000BD
:1062D00000000000000000000000000000000000BE
:1062E00000000000000000000100000002000000AB
:1062F000030000000400000006000000070000008A
:10630000080000000900000000000000000000007C
:10631000000000000000000001000000020000007A
:106320000300000004000000DDDDDDDDDCBBBBDDC3
:10633000DDDDDDDDDDDDDDDD988888888888888825
:106340007777777777888888855555566666666645
:106350006666666666688888833333322222222224
:10636000222222222228888D886300080000002033
:1063700050000000BC400008D86300085000002016
:1063800038060000CC400008000000000000FFFFBD
:10639000FFFFFFFFFFFF0000000000000000000003
:1063A00000000000204E000000000000000000007F
:1063B00000000000000000000000000000000000DD
:1063C00000000000010000000400000000000000C8
:0863D0000024F40000000000AD
:04000005080000C12E
:00000001FF
